{
  "contractName": "mortal",
  "abi": [
    {
      "constant": false,
      "inputs": [],
      "name": "kill",
      "outputs": [],
      "payable": false,
      "stateMutability": "nonpayable",
      "type": "function"
    }
  ],
  "bytecode": "0x6080604052336000806101000a81548173ffffffffffffffffffffffffffffffffffffffff021916908373ffffffffffffffffffffffffffffffffffffffff160217905550610114806100536000396000f300608060405260043610603f576000357c0100000000000000000000000000000000000000000000000000000000900463ffffffff16806341c0e1b5146044575b600080fd5b348015604f57600080fd5b5060566058565b005b6000809054906101000a900473ffffffffffffffffffffffffffffffffffffffff1673ffffffffffffffffffffffffffffffffffffffff163373ffffffffffffffffffffffffffffffffffffffff16141560e6576000809054906101000a900473ffffffffffffffffffffffffffffffffffffffff1673ffffffffffffffffffffffffffffffffffffffff16ff5b5600a165627a7a72305820197c75b178cbc4b542e7ad79ac2346e5a939c2ea9a17ab375e474076f96b1d930029",
  "source": "pragma solidity ^0.4.0;\n\nimport \"./owned.sol\";\n\ncontract mortal is owned {\n    function kill() public {\n        if (msg.sender == owner)\n            selfdestruct(owner);\n    }\n}\n",
  "sourcePath": "/Users/edsonayllon/Documents/Programming/Apps/solar-dapp/dapp/lib/mortal.sol",
  "compiler": {
    "name": "solc",
    "version": "0.4.24+commit.e67f0147.Emscripten.clang"
  },
  "schemaVersion": "2.0.1",
  "updatedAt": "2018-11-29T06:06:17.009Z"
}